{
  "_format": "hh-sol-artifact-1",
  "contractName": "Poolzi",
  "sourceName": "contracts/Poolzi.sol",
  "abi": [
    {
      "inputs": [],
      "stateMutability": "nonpayable",
      "type": "constructor"
    },
    {
      "anonymous": false,
      "inputs": [
        {
          "indexed": true,
          "internalType": "address",
          "name": "owner",
          "type": "address"
        },
        {
          "indexed": true,
          "internalType": "address",
          "name": "spender",
          "type": "address"
        },
        {
          "indexed": false,
          "internalType": "uint256",
          "name": "value",
          "type": "uint256"
        }
      ],
      "name": "Approval",
      "type": "event"
    },
    {
      "anonymous": false,
      "inputs": [
        {
          "indexed": false,
          "internalType": "uint256",
          "name": "id",
          "type": "uint256"
        },
        {
          "indexed": true,
          "internalType": "address",
          "name": "better",
          "type": "address"
        },
        {
          "indexed": false,
          "internalType": "uint256",
          "name": "amount",
          "type": "uint256"
        }
      ],
      "name": "BetEvent",
      "type": "event"
    },
    {
      "anonymous": false,
      "inputs": [
        {
          "indexed": true,
          "internalType": "address",
          "name": "from",
          "type": "address"
        },
        {
          "indexed": true,
          "internalType": "address",
          "name": "to",
          "type": "address"
        },
        {
          "indexed": false,
          "internalType": "uint256",
          "name": "value",
          "type": "uint256"
        }
      ],
      "name": "Transfer",
      "type": "event"
    },
    {
      "inputs": [
        {
          "internalType": "address",
          "name": "owner",
          "type": "address"
        },
        {
          "internalType": "address",
          "name": "spender",
          "type": "address"
        }
      ],
      "name": "allowance",
      "outputs": [
        {
          "internalType": "uint256",
          "name": "",
          "type": "uint256"
        }
      ],
      "stateMutability": "view",
      "type": "function"
    },
    {
      "inputs": [
        {
          "internalType": "address",
          "name": "spender",
          "type": "address"
        },
        {
          "internalType": "uint256",
          "name": "amount",
          "type": "uint256"
        }
      ],
      "name": "approve",
      "outputs": [
        {
          "internalType": "bool",
          "name": "",
          "type": "bool"
        }
      ],
      "stateMutability": "nonpayable",
      "type": "function"
    },
    {
      "inputs": [
        {
          "internalType": "address",
          "name": "account",
          "type": "address"
        }
      ],
      "name": "balanceOf",
      "outputs": [
        {
          "internalType": "uint256",
          "name": "",
          "type": "uint256"
        }
      ],
      "stateMutability": "view",
      "type": "function"
    },
    {
      "inputs": [
        {
          "internalType": "uint256",
          "name": "_matchId",
          "type": "uint256"
        }
      ],
      "name": "canIBet",
      "outputs": [
        {
          "internalType": "bool",
          "name": "",
          "type": "bool"
        }
      ],
      "stateMutability": "view",
      "type": "function"
    },
    {
      "inputs": [
        {
          "internalType": "uint256",
          "name": "_matchId",
          "type": "uint256"
        }
      ],
      "name": "cancelBet",
      "outputs": [
        {
          "internalType": "string",
          "name": "",
          "type": "string"
        }
      ],
      "stateMutability": "payable",
      "type": "function"
    },
    {
      "inputs": [],
      "name": "decimals",
      "outputs": [
        {
          "internalType": "uint8",
          "name": "",
          "type": "uint8"
        }
      ],
      "stateMutability": "view",
      "type": "function"
    },
    {
      "inputs": [
        {
          "internalType": "address",
          "name": "spender",
          "type": "address"
        },
        {
          "internalType": "uint256",
          "name": "subtractedValue",
          "type": "uint256"
        }
      ],
      "name": "decreaseAllowance",
      "outputs": [
        {
          "internalType": "bool",
          "name": "",
          "type": "bool"
        }
      ],
      "stateMutability": "nonpayable",
      "type": "function"
    },
    {
      "inputs": [],
      "name": "getAllPools",
      "outputs": [
        {
          "internalType": "uint256[]",
          "name": "",
          "type": "uint256[]"
        }
      ],
      "stateMutability": "view",
      "type": "function"
    },
    {
      "inputs": [],
      "name": "getAllUserBet",
      "outputs": [
        {
          "internalType": "uint256[]",
          "name": "",
          "type": "uint256[]"
        }
      ],
      "stateMutability": "view",
      "type": "function"
    },
    {
      "inputs": [
        {
          "internalType": "uint256",
          "name": "_matchId",
          "type": "uint256"
        }
      ],
      "name": "getBet",
      "outputs": [
        {
          "components": [
            {
              "internalType": "uint256",
              "name": "id",
              "type": "uint256"
            },
            {
              "internalType": "address",
              "name": "better",
              "type": "address"
            },
            {
              "internalType": "uint256",
              "name": "amount",
              "type": "uint256"
            },
            {
              "internalType": "uint256",
              "name": "teamId",
              "type": "uint256"
            }
          ],
          "internalType": "struct Poolzi.Bet[]",
          "name": "",
          "type": "tuple[]"
        }
      ],
      "stateMutability": "view",
      "type": "function"
    },
    {
      "inputs": [
        {
          "internalType": "uint256",
          "name": "_matchId",
          "type": "uint256"
        }
      ],
      "name": "getPool",
      "outputs": [
        {
          "internalType": "uint256",
          "name": "",
          "type": "uint256"
        }
      ],
      "stateMutability": "view",
      "type": "function"
    },
    {
      "inputs": [],
      "name": "getSCBalance",
      "outputs": [
        {
          "internalType": "uint256",
          "name": "",
          "type": "uint256"
        }
      ],
      "stateMutability": "view",
      "type": "function"
    },
    {
      "inputs": [
        {
          "internalType": "address",
          "name": "spender",
          "type": "address"
        },
        {
          "internalType": "uint256",
          "name": "addedValue",
          "type": "uint256"
        }
      ],
      "name": "increaseAllowance",
      "outputs": [
        {
          "internalType": "bool",
          "name": "",
          "type": "bool"
        }
      ],
      "stateMutability": "nonpayable",
      "type": "function"
    },
    {
      "inputs": [],
      "name": "name",
      "outputs": [
        {
          "internalType": "string",
          "name": "",
          "type": "string"
        }
      ],
      "stateMutability": "view",
      "type": "function"
    },
    {
      "inputs": [
        {
          "internalType": "uint256",
          "name": "_matchId",
          "type": "uint256"
        },
        {
          "internalType": "uint256",
          "name": "_teamId",
          "type": "uint256"
        },
        {
          "internalType": "uint256",
          "name": "_amount",
          "type": "uint256"
        }
      ],
      "name": "placeBets",
      "outputs": [
        {
          "internalType": "bool",
          "name": "",
          "type": "bool"
        }
      ],
      "stateMutability": "payable",
      "type": "function"
    },
    {
      "inputs": [],
      "name": "sc_pool",
      "outputs": [
        {
          "internalType": "uint256",
          "name": "",
          "type": "uint256"
        }
      ],
      "stateMutability": "view",
      "type": "function"
    },
    {
      "inputs": [],
      "name": "symbol",
      "outputs": [
        {
          "internalType": "string",
          "name": "",
          "type": "string"
        }
      ],
      "stateMutability": "view",
      "type": "function"
    },
    {
      "inputs": [],
      "name": "totalSupply",
      "outputs": [
        {
          "internalType": "uint256",
          "name": "",
          "type": "uint256"
        }
      ],
      "stateMutability": "view",
      "type": "function"
    },
    {
      "inputs": [
        {
          "internalType": "address",
          "name": "to",
          "type": "address"
        },
        {
          "internalType": "uint256",
          "name": "amount",
          "type": "uint256"
        }
      ],
      "name": "transfer",
      "outputs": [
        {
          "internalType": "bool",
          "name": "",
          "type": "bool"
        }
      ],
      "stateMutability": "nonpayable",
      "type": "function"
    },
    {
      "inputs": [
        {
          "internalType": "address",
          "name": "from",
          "type": "address"
        },
        {
          "internalType": "address",
          "name": "to",
          "type": "address"
        },
        {
          "internalType": "uint256",
          "name": "amount",
          "type": "uint256"
        }
      ],
      "name": "transferFrom",
      "outputs": [
        {
          "internalType": "bool",
          "name": "",
          "type": "bool"
        }
      ],
      "stateMutability": "nonpayable",
      "type": "function"
    },
    {
      "inputs": [],
      "name": "whoIsOwner",
      "outputs": [
        {
          "internalType": "address",
          "name": "",
          "type": "address"
        }
      ],
      "stateMutability": "view",
      "type": "function"
    }
  ],
  "bytecode": "0x608060405269010f0cf064dd592000006006553480156200001f57600080fd5b506040518060400160405280600c81526020017f427562626c6520546f6b656e00000000000000000000000000000000000000008152506040518060400160405280600381526020017f42425400000000000000000000000000000000000000000000000000000000008152508160039080519060200190620000a4929190620002a6565b508060049080519060200190620000bd929190620002a6565b50505033600560006101000a81548173ffffffffffffffffffffffffffffffffffffffff021916908373ffffffffffffffffffffffffffffffffffffffff16021790555060006007819055506200011d336006546200012360201b60201c565b62000502565b600073ffffffffffffffffffffffffffffffffffffffff168273ffffffffffffffffffffffffffffffffffffffff16141562000196576040517f08c379a00000000000000000000000000000000000000000000000000000000081526004016200018d906200038e565b60405180910390fd5b620001aa600083836200029c60201b60201c565b8060026000828254620001be9190620003de565b92505081905550806000808473ffffffffffffffffffffffffffffffffffffffff1673ffffffffffffffffffffffffffffffffffffffff1681526020019081526020016000206000828254620002159190620003de565b925050819055508173ffffffffffffffffffffffffffffffffffffffff16600073ffffffffffffffffffffffffffffffffffffffff167fddf252ad1be2c89b69c2b068fc378daa952ba7f163c4a11628f55a4df523b3ef836040516200027c9190620003b0565b60405180910390a36200029860008383620002a160201b60201c565b5050565b505050565b505050565b828054620002b49062000445565b90600052602060002090601f016020900481019282620002d8576000855562000324565b82601f10620002f357805160ff191683800117855562000324565b8280016001018555821562000324579182015b828111156200032357825182559160200191906001019062000306565b5b50905062000333919062000337565b5090565b5b808211156200035257600081600090555060010162000338565b5090565b600062000365601f83620003cd565b91506200037282620004d9565b602082019050919050565b62000388816200043b565b82525050565b60006020820190508181036000830152620003a98162000356565b9050919050565b6000602082019050620003c760008301846200037d565b92915050565b600082825260208201905092915050565b6000620003eb826200043b565b9150620003f8836200043b565b9250827fffffffffffffffffffffffffffffffffffffffffffffffffffffffffffffffff0382111562000430576200042f6200047b565b5b828201905092915050565b6000819050919050565b600060028204905060018216806200045e57607f821691505b60208210811415620004755762000474620004aa565b5b50919050565b7f4e487b7100000000000000000000000000000000000000000000000000000000600052601160045260246000fd5b7f4e487b7100000000000000000000000000000000000000000000000000000000600052602260045260246000fd5b7f45524332303a206d696e7420746f20746865207a65726f206164647265737300600082015250565b61279780620005126000396000f3fe60806040526004361061012a5760003560e01c8063410fff25116100ab5780639ee1bd0f1161006f5780639ee1bd0f1461043c578063a457c2d714610467578063a9059cbb146104a4578063be75ac83146104e1578063d88ff1f41461050c578063dd62ed3e146105375761012a565b8063410fff251461034157806350a18b7f1461037e57806370a08231146103a9578063737d899d146103e657806395d89b41146104115761012a565b806323b872dd116100f257806323b872dd1461023c578063313ce56714610279578063357401f5146102a457806339509351146102d45780633bc84c1b146103115761012a565b8063061e494f1461012f578063068bcd8d1461016c57806306fdde03146101a9578063095ea7b3146101d457806318160ddd14610211575b600080fd5b34801561013b57600080fd5b5061015660048036038101906101519190611c2f565b610574565b6040516101639190611ff4565b60405180910390f35b34801561017857600080fd5b50610193600480360381019061018e9190611c2f565b61065a565b6040516101a091906121b5565b60405180910390f35b3480156101b557600080fd5b506101be610677565b6040516101cb9190612053565b60405180910390f35b3480156101e057600080fd5b506101fb60048036038101906101f69190611bf3565b610709565b6040516102089190612038565b60405180910390f35b34801561021d57600080fd5b5061022661072c565b60405161023391906121b5565b60405180910390f35b34801561024857600080fd5b50610263600480360381019061025e9190611ba4565b610736565b6040516102709190612038565b60405180910390f35b34801561028557600080fd5b5061028e610765565b60405161029b91906121f9565b60405180910390f35b6102be60048036038101906102b99190611c2f565b61076e565b6040516102cb9190612053565b60405180910390f35b3480156102e057600080fd5b506102fb60048036038101906102f69190611bf3565b610b28565b6040516103089190612038565b60405180910390f35b61032b60048036038101906103269190611c58565b610bd2565b6040516103389190612038565b60405180910390f35b34801561034d57600080fd5b5061036860048036038101906103639190611c2f565b610e7c565b6040516103759190612038565b60405180910390f35b34801561038a57600080fd5b50610393611041565b6040516103a09190612016565b60405180910390f35b3480156103b557600080fd5b506103d060048036038101906103cb9190611b3f565b6110d6565b6040516103dd91906121b5565b60405180910390f35b3480156103f257600080fd5b506103fb61111e565b60405161040891906121b5565b60405180910390f35b34801561041d57600080fd5b50610426611124565b6040516104339190612053565b60405180910390f35b34801561044857600080fd5b506104516111b6565b60405161045e9190611fd9565b60405180910390f35b34801561047357600080fd5b5061048e60048036038101906104899190611bf3565b6111e0565b60405161049b9190612038565b60405180910390f35b3480156104b057600080fd5b506104cb60048036038101906104c69190611bf3565b6112ca565b6040516104d89190612038565b60405180910390f35b3480156104ed57600080fd5b506104f66112ed565b60405161050391906121b5565b60405180910390f35b34801561051857600080fd5b506105216112f5565b60405161052e9190612016565b60405180910390f35b34801561054357600080fd5b5061055e60048036038101906105599190611b68565b61134d565b60405161056b91906121b5565b60405180910390f35b606060086000838152602001908152602001600020805480602002602001604051908101604052809291908181526020016000905b8282101561064f5783829060005260206000209060040201604051806080016040529081600082015481526020016001820160009054906101000a900473ffffffffffffffffffffffffffffffffffffffff1673ffffffffffffffffffffffffffffffffffffffff1673ffffffffffffffffffffffffffffffffffffffff16815260200160028201548152602001600382015481525050815260200190600101906105a9565b505050509050919050565b600060096000838152602001908152602001600020549050919050565b60606003805461068690612380565b80601f01602080910402602001604051908101604052809291908181526020018280546106b290612380565b80156106ff5780601f106106d4576101008083540402835291602001916106ff565b820191906000526020600020905b8154815290600101906020018083116106e257829003601f168201915b5050505050905090565b6000806107146113d4565b90506107218185856113dc565b600191505092915050565b6000600254905090565b6000806107416113d4565b905061074e8582856115a7565b610759858585611633565b60019150509392505050565b60006012905090565b6060600d600061077e9190611980565b600060086000848152602001908152602001600020805480602002602001604051908101604052809291908181526020016000905b828210156108595783829060005260206000209060040201604051806080016040529081600082015481526020016001820160009054906101000a900473ffffffffffffffffffffffffffffffffffffffff1673ffffffffffffffffffffffffffffffffffffffff1673ffffffffffffffffffffffffffffffffffffffff16815260200160028201548152602001600382015481525050815260200190600101906107b3565b50505050905060008151905060005b81811015610ac3573373ffffffffffffffffffffffffffffffffffffffff168382815181106108c0577f4e487b7100000000000000000000000000000000000000000000000000000000600052603260045260246000fd5b60200260200101516020015173ffffffffffffffffffffffffffffffffffffffff1614156109dd576109266040518060400160405280600581526020017f496e2069660000000000000000000000000000000000000000000000000000008152506118b4565b600a610931306110d6565b1015610972576040517f08c379a000000000000000000000000000000000000000000000000000000000815260040161096990612175565b60405180910390fd5b3373ffffffffffffffffffffffffffffffffffffffff166108fc600a9081150290604051600060405180830381858888f193505050501580156109b9573d6000803e3d6000fd5b5060405180606001604052806025815260200161273d602591399350505050610b23565b600d838281518110610a18577f4e487b7100000000000000000000000000000000000000000000000000000000600052603260045260246000fd5b602002602001015190806001815401808255809150506001900390600052602060002090600402016000909190919091506000820151816000015560208201518160010160006101000a81548173ffffffffffffffffffffffffffffffffffffffff021916908373ffffffffffffffffffffffffffffffffffffffff160217905550604082015181600201556060820151816003015550508080610abb906123b2565b915050610868565b50600d60086000868152602001908152602001600020908054610ae79291906119a4565b506040518060400160405280601081526020017f506173206465207472616e736665727400000000000000000000000000000000815250925050505b919050565b600080610b336113d4565b9050610bc7818585600160008673ffffffffffffffffffffffffffffffffffffffff1673ffffffffffffffffffffffffffffffffffffffff16815260200190815260200160002060008973ffffffffffffffffffffffffffffffffffffffff1673ffffffffffffffffffffffffffffffffffffffff16815260200190815260200160002054610bc291906122a2565b6113dc565b600191505092915050565b600060011515610be185610e7c565b151514610c23576040517f08c379a0000000000000000000000000000000000000000000000000000000008152600401610c1a90612155565b60405180910390fd5b600160076000828254610c3691906122a2565b92505081905550610c45611a81565b600754816000018181525050838160600181815250508281604001818152505033816020019073ffffffffffffffffffffffffffffffffffffffff16908173ffffffffffffffffffffffffffffffffffffffff1681525050600860008681526020019081526020016000208190806001815401808255809150506001900390600052602060002090600402016000909190919091506000820151816000015560208201518160010160006101000a81548173ffffffffffffffffffffffffffffffffffffffff021916908373ffffffffffffffffffffffffffffffffffffffff1602179055506040820151816002015560608201518160030155505082600c6000828254610d5391906122a2565b9250508190555082600960008781526020019081526020016000206000828254610d7d91906122a2565b92505081905550600b859080600181540180825580915050600190039060005260206000200160009091909190915055600a60003373ffffffffffffffffffffffffffffffffffffffff1673ffffffffffffffffffffffffffffffffffffffff168152602001908152602001600020859080600181540180825580915050600190039060005260206000200160009091909190915055610e1d30846112ca565b503373ffffffffffffffffffffffffffffffffffffffff167f2b8ff012057887af080de169a595c2b0f29b1156233838e088f99d3c28e8b9b960075485604051610e689291906121d0565b60405180910390a260009150509392505050565b60008060086000848152602001908152602001600020805480602002602001604051908101604052809291908181526020016000905b82821015610f585783829060005260206000209060040201604051806080016040529081600082015481526020016001820160009054906101000a900473ffffffffffffffffffffffffffffffffffffffff1673ffffffffffffffffffffffffffffffffffffffff1673ffffffffffffffffffffffffffffffffffffffff1681526020016002820154815260200160038201548152505081526020019060010190610eb2565b50505050905060008151905060005b81811015611035573373ffffffffffffffffffffffffffffffffffffffff16838281518110610fbf577f4e487b7100000000000000000000000000000000000000000000000000000000600052603260045260246000fd5b60200260200101516020015173ffffffffffffffffffffffffffffffffffffffff161415611022576040517f08c379a0000000000000000000000000000000000000000000000000000000008152600401611019906120f5565b60405180910390fd5b808061102d906123b2565b915050610f67565b50600192505050919050565b6060600a60003373ffffffffffffffffffffffffffffffffffffffff1673ffffffffffffffffffffffffffffffffffffffff1681526020019081526020016000208054806020026020016040519081016040528092919081815260200182805480156110cc57602002820191906000526020600020905b8154815260200190600101908083116110b8575b5050505050905090565b60008060008373ffffffffffffffffffffffffffffffffffffffff1673ffffffffffffffffffffffffffffffffffffffff168152602001908152602001600020549050919050565b600c5481565b60606004805461113390612380565b80601f016020809104026020016040519081016040528092919081815260200182805461115f90612380565b80156111ac5780601f10611181576101008083540402835291602001916111ac565b820191906000526020600020905b81548152906001019060200180831161118f57829003601f168201915b5050505050905090565b6000600560009054906101000a900473ffffffffffffffffffffffffffffffffffffffff16905090565b6000806111eb6113d4565b90506000600160008373ffffffffffffffffffffffffffffffffffffffff1673ffffffffffffffffffffffffffffffffffffffff16815260200190815260200160002060008673ffffffffffffffffffffffffffffffffffffffff1673ffffffffffffffffffffffffffffffffffffffff168152602001908152602001600020549050838110156112b1576040517f08c379a00000000000000000000000000000000000000000000000000000000081526004016112a890612195565b60405180910390fd5b6112be82868684036113dc565b60019250505092915050565b6000806112d56113d4565b90506112e2818585611633565b600191505092915050565b600047905090565b6060600b80548060200260200160405190810160405280929190818152602001828054801561134357602002820191906000526020600020905b81548152602001906001019080831161132f575b5050505050905090565b6000600160008473ffffffffffffffffffffffffffffffffffffffff1673ffffffffffffffffffffffffffffffffffffffff16815260200190815260200160002060008373ffffffffffffffffffffffffffffffffffffffff1673ffffffffffffffffffffffffffffffffffffffff16815260200190815260200160002054905092915050565b600033905090565b600073ffffffffffffffffffffffffffffffffffffffff168373ffffffffffffffffffffffffffffffffffffffff16141561144c576040517f08c379a000000000000000000000000000000000000000000000000000000000815260040161144390612135565b60405180910390fd5b600073ffffffffffffffffffffffffffffffffffffffff168273ffffffffffffffffffffffffffffffffffffffff1614156114bc576040517f08c379a00000000000000000000000000000000000000000000000000000000081526004016114b390612095565b60405180910390fd5b80600160008573ffffffffffffffffffffffffffffffffffffffff1673ffffffffffffffffffffffffffffffffffffffff16815260200190815260200160002060008473ffffffffffffffffffffffffffffffffffffffff1673ffffffffffffffffffffffffffffffffffffffff168152602001908152602001600020819055508173ffffffffffffffffffffffffffffffffffffffff168373ffffffffffffffffffffffffffffffffffffffff167f8c5be1e5ebec7d5bd14f71427d1e84f3dd0314c0f7b2291e5b200ac8c7c3b9258360405161159a91906121b5565b60405180910390a3505050565b60006115b3848461134d565b90507fffffffffffffffffffffffffffffffffffffffffffffffffffffffffffffffff811461162d578181101561161f576040517f08c379a0000000000000000000000000000000000000000000000000000000008152600401611616906120b5565b60405180910390fd5b61162c84848484036113dc565b5b50505050565b600073ffffffffffffffffffffffffffffffffffffffff168373ffffffffffffffffffffffffffffffffffffffff1614156116a3576040517f08c379a000000000000000000000000000000000000000000000000000000000815260040161169a90612115565b60405180910390fd5b600073ffffffffffffffffffffffffffffffffffffffff168273ffffffffffffffffffffffffffffffffffffffff161415611713576040517f08c379a000000000000000000000000000000000000000000000000000000000815260040161170a90612075565b60405180910390fd5b61171e83838361194d565b60008060008573ffffffffffffffffffffffffffffffffffffffff1673ffffffffffffffffffffffffffffffffffffffff168152602001908152602001600020549050818110156117a4576040517f08c379a000000000000000000000000000000000000000000000000000000000815260040161179b906120d5565b60405180910390fd5b8181036000808673ffffffffffffffffffffffffffffffffffffffff1673ffffffffffffffffffffffffffffffffffffffff16815260200190815260200160002081905550816000808573ffffffffffffffffffffffffffffffffffffffff1673ffffffffffffffffffffffffffffffffffffffff168152602001908152602001600020600082825461183791906122a2565b925050819055508273ffffffffffffffffffffffffffffffffffffffff168473ffffffffffffffffffffffffffffffffffffffff167fddf252ad1be2c89b69c2b068fc378daa952ba7f163c4a11628f55a4df523b3ef8460405161189b91906121b5565b60405180910390a36118ae848484611952565b50505050565b61194a816040516024016118c89190612053565b6040516020818303038152906040527f41304fac000000000000000000000000000000000000000000000000000000007bffffffffffffffffffffffffffffffffffffffffffffffffffffffff19166020820180517bffffffffffffffffffffffffffffffffffffffffffffffffffffffff8381831617835250505050611957565b50565b505050565b505050565b60008151905060006a636f6e736f6c652e6c6f679050602083016000808483855afa5050505050565b50805460008255600402906000526020600020908101906119a19190611abf565b50565b828054828255906000526020600020906004028101928215611a705760005260206000209160040282015b82811115611a6f578282600082015481600001556001820160009054906101000a900473ffffffffffffffffffffffffffffffffffffffff168160010160006101000a81548173ffffffffffffffffffffffffffffffffffffffff021916908373ffffffffffffffffffffffffffffffffffffffff16021790555060028201548160020155600382015481600301555050916004019190600401906119cf565b5b509050611a7d9190611abf565b5090565b604051806080016040528060008152602001600073ffffffffffffffffffffffffffffffffffffffff16815260200160008152602001600081525090565b5b80821115611b11576000808201600090556001820160006101000a81549073ffffffffffffffffffffffffffffffffffffffff02191690556002820160009055600382016000905550600401611ac0565b5090565b600081359050611b248161270e565b92915050565b600081359050611b3981612725565b92915050565b600060208284031215611b5157600080fd5b6000611b5f84828501611b15565b91505092915050565b60008060408385031215611b7b57600080fd5b6000611b8985828601611b15565b9250506020611b9a85828601611b15565b9150509250929050565b600080600060608486031215611bb957600080fd5b6000611bc786828701611b15565b9350506020611bd886828701611b15565b9250506040611be986828701611b2a565b9150509250925092565b60008060408385031215611c0657600080fd5b6000611c1485828601611b15565b9250506020611c2585828601611b2a565b9150509250929050565b600060208284031215611c4157600080fd5b6000611c4f84828501611b2a565b91505092915050565b600080600060608486031215611c6d57600080fd5b6000611c7b86828701611b2a565b9350506020611c8c86828701611b2a565b9250506040611c9d86828701611b2a565b9150509250925092565b6000611cb38383611f57565b60808301905092915050565b6000611ccb8383611fac565b60208301905092915050565b611ce0816122f8565b82525050565b611cef816122f8565b82525050565b6000611d0082612234565b611d0a818561226f565b9350611d1583612214565b8060005b83811015611d46578151611d2d8882611ca7565b9750611d3883612255565b925050600181019050611d19565b5085935050505092915050565b6000611d5e8261223f565b611d688185612280565b9350611d7383612224565b8060005b83811015611da4578151611d8b8882611cbf565b9750611d9683612262565b925050600181019050611d77565b5085935050505092915050565b611dba8161230a565b82525050565b6000611dcb8261224a565b611dd58185612291565b9350611de581856020860161234d565b611dee81612459565b840191505092915050565b6000611e06602383612291565b9150611e118261246a565b604082019050919050565b6000611e29602283612291565b9150611e34826124b9565b604082019050919050565b6000611e4c601d83612291565b9150611e5782612508565b602082019050919050565b6000611e6f602683612291565b9150611e7a82612531565b604082019050919050565b6000611e92600c83612291565b9150611e9d82612580565b602082019050919050565b6000611eb5602583612291565b9150611ec0826125a9565b604082019050919050565b6000611ed8602483612291565b9150611ee3826125f8565b604082019050919050565b6000611efb601783612291565b9150611f0682612647565b602082019050919050565b6000611f1e602183612291565b9150611f2982612670565b604082019050919050565b6000611f41602583612291565b9150611f4c826126bf565b604082019050919050565b608082016000820151611f6d6000850182611fac565b506020820151611f806020850182611cd7565b506040820151611f936040850182611fac565b506060820151611fa66060850182611fac565b50505050565b611fb581612336565b82525050565b611fc481612336565b82525050565b611fd381612340565b82525050565b6000602082019050611fee6000830184611ce6565b92915050565b6000602082019050818103600083015261200e8184611cf5565b905092915050565b600060208201905081810360008301526120308184611d53565b905092915050565b600060208201905061204d6000830184611db1565b92915050565b6000602082019050818103600083015261206d8184611dc0565b905092915050565b6000602082019050818103600083015261208e81611df9565b9050919050565b600060208201905081810360008301526120ae81611e1c565b9050919050565b600060208201905081810360008301526120ce81611e3f565b9050919050565b600060208201905081810360008301526120ee81611e62565b9050919050565b6000602082019050818103600083015261210e81611e85565b9050919050565b6000602082019050818103600083015261212e81611ea8565b9050919050565b6000602082019050818103600083015261214e81611ecb565b9050919050565b6000602082019050818103600083015261216e81611eee565b9050919050565b6000602082019050818103600083015261218e81611f11565b9050919050565b600060208201905081810360008301526121ae81611f34565b9050919050565b60006020820190506121ca6000830184611fbb565b92915050565b60006040820190506121e56000830185611fbb565b6121f26020830184611fbb565b9392505050565b600060208201905061220e6000830184611fca565b92915050565b6000819050602082019050919050565b6000819050602082019050919050565b600081519050919050565b600081519050919050565b600081519050919050565b6000602082019050919050565b6000602082019050919050565b600082825260208201905092915050565b600082825260208201905092915050565b600082825260208201905092915050565b60006122ad82612336565b91506122b883612336565b9250827fffffffffffffffffffffffffffffffffffffffffffffffffffffffffffffffff038211156122ed576122ec6123fb565b5b828201905092915050565b600061230382612316565b9050919050565b60008115159050919050565b600073ffffffffffffffffffffffffffffffffffffffff82169050919050565b6000819050919050565b600060ff82169050919050565b60005b8381101561236b578082015181840152602081019050612350565b8381111561237a576000848401525b50505050565b6000600282049050600182168061239857607f821691505b602082108114156123ac576123ab61242a565b5b50919050565b60006123bd82612336565b91507fffffffffffffffffffffffffffffffffffffffffffffffffffffffffffffffff8214156123f0576123ef6123fb565b5b600182019050919050565b7f4e487b7100000000000000000000000000000000000000000000000000000000600052601160045260246000fd5b7f4e487b7100000000000000000000000000000000000000000000000000000000600052602260045260246000fd5b6000601f19601f8301169050919050565b7f45524332303a207472616e7366657220746f20746865207a65726f206164647260008201527f6573730000000000000000000000000000000000000000000000000000000000602082015250565b7f45524332303a20617070726f766520746f20746865207a65726f20616464726560008201527f7373000000000000000000000000000000000000000000000000000000000000602082015250565b7f45524332303a20696e73756666696369656e7420616c6c6f77616e6365000000600082015250565b7f45524332303a207472616e7366657220616d6f756e742065786365656473206260008201527f616c616e63650000000000000000000000000000000000000000000000000000602082015250565b7f416c726561647920626574210000000000000000000000000000000000000000600082015250565b7f45524332303a207472616e736665722066726f6d20746865207a65726f20616460008201527f6472657373000000000000000000000000000000000000000000000000000000602082015250565b7f45524332303a20617070726f76652066726f6d20746865207a65726f2061646460008201527f7265737300000000000000000000000000000000000000000000000000000000602082015250565b7f4d73672073656e64657220616c72656164792062657421000000000000000000600082015250565b7f436f6e747261637420646f65736e6f742068617665207468617420616d6f756e60008201527f7400000000000000000000000000000000000000000000000000000000000000602082015250565b7f45524332303a2064656372656173656420616c6c6f77616e63652062656c6f7760008201527f207a65726f000000000000000000000000000000000000000000000000000000602082015250565b612717816122f8565b811461272257600080fd5b50565b61272e81612336565b811461273957600080fd5b5056fe62657473466f72414d617463685b695d2e626574746572203d3d206d73672e73656e646572a264697066735822122079ba3d2b25eeba20f7490299ef30754e35cbf2b601dd4568793d07a1644ab81964736f6c63430008040033",
  "linkReferences": {},
  "deployedLinkReferences": {}
}