{
  "_format": "hh-sol-artifact-1",
  "contractName": "Token",
  "sourceName": "contracts/Token.sol",
  "abi": [
    {
      "inputs": [
        {
          "internalType": "uint256",
          "name": "_initialSupply",
          "type": "uint256"
        }
      ],
      "stateMutability": "nonpayable",
      "type": "constructor"
    },
    {
      "anonymous": false,
      "inputs": [
        {
          "indexed": true,
          "internalType": "address",
          "name": "owner",
          "type": "address"
        },
        {
          "indexed": true,
          "internalType": "address",
          "name": "spender",
          "type": "address"
        },
        {
          "indexed": false,
          "internalType": "uint256",
          "name": "value",
          "type": "uint256"
        }
      ],
      "name": "Approval",
      "type": "event"
    },
    {
      "anonymous": false,
      "inputs": [
        {
          "indexed": true,
          "internalType": "address",
          "name": "from",
          "type": "address"
        },
        {
          "indexed": true,
          "internalType": "address",
          "name": "to",
          "type": "address"
        },
        {
          "indexed": false,
          "internalType": "uint256",
          "name": "value",
          "type": "uint256"
        }
      ],
      "name": "Transfer",
      "type": "event"
    },
    {
      "inputs": [
        {
          "internalType": "address",
          "name": "owner",
          "type": "address"
        },
        {
          "internalType": "address",
          "name": "spender",
          "type": "address"
        }
      ],
      "name": "allowance",
      "outputs": [
        {
          "internalType": "uint256",
          "name": "",
          "type": "uint256"
        }
      ],
      "stateMutability": "view",
      "type": "function"
    },
    {
      "inputs": [
        {
          "internalType": "address",
          "name": "spender",
          "type": "address"
        },
        {
          "internalType": "uint256",
          "name": "amount",
          "type": "uint256"
        }
      ],
      "name": "approve",
      "outputs": [
        {
          "internalType": "bool",
          "name": "",
          "type": "bool"
        }
      ],
      "stateMutability": "nonpayable",
      "type": "function"
    },
    {
      "inputs": [
        {
          "internalType": "address",
          "name": "account",
          "type": "address"
        }
      ],
      "name": "balanceOf",
      "outputs": [
        {
          "internalType": "uint256",
          "name": "",
          "type": "uint256"
        }
      ],
      "stateMutability": "view",
      "type": "function"
    },
    {
      "inputs": [],
      "name": "decimals",
      "outputs": [
        {
          "internalType": "uint8",
          "name": "",
          "type": "uint8"
        }
      ],
      "stateMutability": "view",
      "type": "function"
    },
    {
      "inputs": [
        {
          "internalType": "address",
          "name": "spender",
          "type": "address"
        },
        {
          "internalType": "uint256",
          "name": "subtractedValue",
          "type": "uint256"
        }
      ],
      "name": "decreaseAllowance",
      "outputs": [
        {
          "internalType": "bool",
          "name": "",
          "type": "bool"
        }
      ],
      "stateMutability": "nonpayable",
      "type": "function"
    },
    {
      "inputs": [
        {
          "internalType": "uint256",
          "name": "_amount",
          "type": "uint256"
        }
      ],
      "name": "depositToken",
      "outputs": [],
      "stateMutability": "nonpayable",
      "type": "function"
    },
    {
      "inputs": [
        {
          "internalType": "address",
          "name": "spender",
          "type": "address"
        },
        {
          "internalType": "uint256",
          "name": "addedValue",
          "type": "uint256"
        }
      ],
      "name": "increaseAllowance",
      "outputs": [
        {
          "internalType": "bool",
          "name": "",
          "type": "bool"
        }
      ],
      "stateMutability": "nonpayable",
      "type": "function"
    },
    {
      "inputs": [],
      "name": "name",
      "outputs": [
        {
          "internalType": "string",
          "name": "",
          "type": "string"
        }
      ],
      "stateMutability": "view",
      "type": "function"
    },
    {
      "inputs": [],
      "name": "owner",
      "outputs": [
        {
          "internalType": "address",
          "name": "",
          "type": "address"
        }
      ],
      "stateMutability": "view",
      "type": "function"
    },
    {
      "inputs": [],
      "name": "symbol",
      "outputs": [
        {
          "internalType": "string",
          "name": "",
          "type": "string"
        }
      ],
      "stateMutability": "view",
      "type": "function"
    },
    {
      "inputs": [],
      "name": "totalSupply",
      "outputs": [
        {
          "internalType": "uint256",
          "name": "",
          "type": "uint256"
        }
      ],
      "stateMutability": "view",
      "type": "function"
    },
    {
      "inputs": [
        {
          "internalType": "address",
          "name": "to",
          "type": "address"
        },
        {
          "internalType": "uint256",
          "name": "amount",
          "type": "uint256"
        }
      ],
      "name": "transfer",
      "outputs": [
        {
          "internalType": "bool",
          "name": "",
          "type": "bool"
        }
      ],
      "stateMutability": "nonpayable",
      "type": "function"
    },
    {
      "inputs": [
        {
          "internalType": "address",
          "name": "from",
          "type": "address"
        },
        {
          "internalType": "address",
          "name": "to",
          "type": "address"
        },
        {
          "internalType": "uint256",
          "name": "amount",
          "type": "uint256"
        }
      ],
      "name": "transferFrom",
      "outputs": [
        {
          "internalType": "bool",
          "name": "",
          "type": "bool"
        }
      ],
      "stateMutability": "nonpayable",
      "type": "function"
    }
  ],
  "bytecode": "0x60806040523480156200001157600080fd5b506040516200199d3803806200199d83398181016040528101906200003791906200037b565b6040518060400160405280600881526020017f427562626c6520350000000000000000000000000000000000000000000000008152506040518060400160405280600381526020017f42425600000000000000000000000000000000000000000000000000000000008152508160039080519060200190620000bb929190620002b4565b508060049080519060200190620000d4929190620002b4565b50505033600560006101000a81548173ffffffffffffffffffffffffffffffffffffffff021916908373ffffffffffffffffffffffffffffffffffffffff1602179055506200012a33826200013160201b60201c565b506200056d565b600073ffffffffffffffffffffffffffffffffffffffff168273ffffffffffffffffffffffffffffffffffffffff161415620001a4576040517f08c379a00000000000000000000000000000000000000000000000000000000081526004016200019b90620003df565b60405180910390fd5b620001b860008383620002aa60201b60201c565b8060026000828254620001cc91906200042f565b92505081905550806000808473ffffffffffffffffffffffffffffffffffffffff1673ffffffffffffffffffffffffffffffffffffffff16815260200190815260200160002060008282546200022391906200042f565b925050819055508173ffffffffffffffffffffffffffffffffffffffff16600073ffffffffffffffffffffffffffffffffffffffff167fddf252ad1be2c89b69c2b068fc378daa952ba7f163c4a11628f55a4df523b3ef836040516200028a919062000401565b60405180910390a3620002a660008383620002af60201b60201c565b5050565b505050565b505050565b828054620002c29062000496565b90600052602060002090601f016020900481019282620002e6576000855562000332565b82601f106200030157805160ff191683800117855562000332565b8280016001018555821562000332579182015b828111156200033157825182559160200191906001019062000314565b5b50905062000341919062000345565b5090565b5b808211156200036057600081600090555060010162000346565b5090565b600081519050620003758162000553565b92915050565b6000602082840312156200038e57600080fd5b60006200039e8482850162000364565b91505092915050565b6000620003b6601f836200041e565b9150620003c3826200052a565b602082019050919050565b620003d9816200048c565b82525050565b60006020820190508181036000830152620003fa81620003a7565b9050919050565b6000602082019050620004186000830184620003ce565b92915050565b600082825260208201905092915050565b60006200043c826200048c565b915062000449836200048c565b9250827fffffffffffffffffffffffffffffffffffffffffffffffffffffffffffffffff03821115620004815762000480620004cc565b5b828201905092915050565b6000819050919050565b60006002820490506001821680620004af57607f821691505b60208210811415620004c657620004c5620004fb565b5b50919050565b7f4e487b7100000000000000000000000000000000000000000000000000000000600052601160045260246000fd5b7f4e487b7100000000000000000000000000000000000000000000000000000000600052602260045260246000fd5b7f45524332303a206d696e7420746f20746865207a65726f206164647265737300600082015250565b6200055e816200048c565b81146200056a57600080fd5b50565b611420806200057d6000396000f3fe608060405234801561001057600080fd5b50600436106100cf5760003560e01c80636215be771161008c57806395d89b411161006657806395d89b4114610228578063a457c2d714610246578063a9059cbb14610276578063dd62ed3e146102a6576100cf565b80636215be77146101be57806370a08231146101da5780638da5cb5b1461020a576100cf565b806306fdde03146100d4578063095ea7b3146100f257806318160ddd1461012257806323b872dd14610140578063313ce56714610170578063395093511461018e575b600080fd5b6100dc6102d6565b6040516100e99190610ee6565b60405180910390f35b61010c60048036038101906101079190610ce1565b610368565b6040516101199190610ecb565b60405180910390f35b61012a61038b565b6040516101379190610fe8565b60405180910390f35b61015a60048036038101906101559190610c92565b610395565b6040516101679190610ecb565b60405180910390f35b6101786103c4565b6040516101859190611003565b60405180910390f35b6101a860048036038101906101a39190610ce1565b6103cd565b6040516101b59190610ecb565b60405180910390f35b6101d860048036038101906101d39190610d1d565b610477565b005b6101f460048036038101906101ef9190610c2d565b610485565b6040516102019190610fe8565b60405180910390f35b6102126104cd565b60405161021f9190610eb0565b60405180910390f35b6102306104f3565b60405161023d9190610ee6565b60405180910390f35b610260600480360381019061025b9190610ce1565b610585565b60405161026d9190610ecb565b60405180910390f35b610290600480360381019061028b9190610ce1565b61066f565b60405161029d9190610ecb565b60405180910390f35b6102c060048036038101906102bb9190610c56565b610692565b6040516102cd9190610fe8565b60405180910390f35b6060600380546102e590611118565b80601f016020809104026020016040519081016040528092919081815260200182805461031190611118565b801561035e5780601f106103335761010080835404028352916020019161035e565b820191906000526020600020905b81548152906001019060200180831161034157829003601f168201915b5050505050905090565b600080610373610719565b9050610380818585610721565b600191505092915050565b6000600254905090565b6000806103a0610719565b90506103ad8582856108ec565b6103b8858585610978565b60019150509392505050565b60006012905090565b6000806103d8610719565b905061046c818585600160008673ffffffffffffffffffffffffffffffffffffffff1673ffffffffffffffffffffffffffffffffffffffff16815260200190815260200160002060008973ffffffffffffffffffffffffffffffffffffffff1673ffffffffffffffffffffffffffffffffffffffff16815260200190815260200160002054610467919061103a565b610721565b600191505092915050565b610481308261066f565b5050565b60008060008373ffffffffffffffffffffffffffffffffffffffff1673ffffffffffffffffffffffffffffffffffffffff168152602001908152602001600020549050919050565b600560009054906101000a900473ffffffffffffffffffffffffffffffffffffffff1681565b60606004805461050290611118565b80601f016020809104026020016040519081016040528092919081815260200182805461052e90611118565b801561057b5780601f106105505761010080835404028352916020019161057b565b820191906000526020600020905b81548152906001019060200180831161055e57829003601f168201915b5050505050905090565b600080610590610719565b90506000600160008373ffffffffffffffffffffffffffffffffffffffff1673ffffffffffffffffffffffffffffffffffffffff16815260200190815260200160002060008673ffffffffffffffffffffffffffffffffffffffff1673ffffffffffffffffffffffffffffffffffffffff16815260200190815260200160002054905083811015610656576040517f08c379a000000000000000000000000000000000000000000000000000000000815260040161064d90610fc8565b60405180910390fd5b6106638286868403610721565b60019250505092915050565b60008061067a610719565b9050610687818585610978565b600191505092915050565b6000600160008473ffffffffffffffffffffffffffffffffffffffff1673ffffffffffffffffffffffffffffffffffffffff16815260200190815260200160002060008373ffffffffffffffffffffffffffffffffffffffff1673ffffffffffffffffffffffffffffffffffffffff16815260200190815260200160002054905092915050565b600033905090565b600073ffffffffffffffffffffffffffffffffffffffff168373ffffffffffffffffffffffffffffffffffffffff161415610791576040517f08c379a000000000000000000000000000000000000000000000000000000000815260040161078890610fa8565b60405180910390fd5b600073ffffffffffffffffffffffffffffffffffffffff168273ffffffffffffffffffffffffffffffffffffffff161415610801576040517f08c379a00000000000000000000000000000000000000000000000000000000081526004016107f890610f28565b60405180910390fd5b80600160008573ffffffffffffffffffffffffffffffffffffffff1673ffffffffffffffffffffffffffffffffffffffff16815260200190815260200160002060008473ffffffffffffffffffffffffffffffffffffffff1673ffffffffffffffffffffffffffffffffffffffff168152602001908152602001600020819055508173ffffffffffffffffffffffffffffffffffffffff168373ffffffffffffffffffffffffffffffffffffffff167f8c5be1e5ebec7d5bd14f71427d1e84f3dd0314c0f7b2291e5b200ac8c7c3b925836040516108df9190610fe8565b60405180910390a3505050565b60006108f88484610692565b90507fffffffffffffffffffffffffffffffffffffffffffffffffffffffffffffffff81146109725781811015610964576040517f08c379a000000000000000000000000000000000000000000000000000000000815260040161095b90610f48565b60405180910390fd5b6109718484848403610721565b5b50505050565b600073ffffffffffffffffffffffffffffffffffffffff168373ffffffffffffffffffffffffffffffffffffffff1614156109e8576040517f08c379a00000000000000000000000000000000000000000000000000000000081526004016109df90610f88565b60405180910390fd5b600073ffffffffffffffffffffffffffffffffffffffff168273ffffffffffffffffffffffffffffffffffffffff161415610a58576040517f08c379a0000000000000000000000000000000000000000000000000000000008152600401610a4f90610f08565b60405180910390fd5b610a63838383610bf9565b60008060008573ffffffffffffffffffffffffffffffffffffffff1673ffffffffffffffffffffffffffffffffffffffff16815260200190815260200160002054905081811015610ae9576040517f08c379a0000000000000000000000000000000000000000000000000000000008152600401610ae090610f68565b60405180910390fd5b8181036000808673ffffffffffffffffffffffffffffffffffffffff1673ffffffffffffffffffffffffffffffffffffffff16815260200190815260200160002081905550816000808573ffffffffffffffffffffffffffffffffffffffff1673ffffffffffffffffffffffffffffffffffffffff1681526020019081526020016000206000828254610b7c919061103a565b925050819055508273ffffffffffffffffffffffffffffffffffffffff168473ffffffffffffffffffffffffffffffffffffffff167fddf252ad1be2c89b69c2b068fc378daa952ba7f163c4a11628f55a4df523b3ef84604051610be09190610fe8565b60405180910390a3610bf3848484610bfe565b50505050565b505050565b505050565b600081359050610c12816113bc565b92915050565b600081359050610c27816113d3565b92915050565b600060208284031215610c3f57600080fd5b6000610c4d84828501610c03565b91505092915050565b60008060408385031215610c6957600080fd5b6000610c7785828601610c03565b9250506020610c8885828601610c03565b9150509250929050565b600080600060608486031215610ca757600080fd5b6000610cb586828701610c03565b9350506020610cc686828701610c03565b9250506040610cd786828701610c18565b9150509250925092565b60008060408385031215610cf457600080fd5b6000610d0285828601610c03565b9250506020610d1385828601610c18565b9150509250929050565b600060208284031215610d2f57600080fd5b6000610d3d84828501610c18565b91505092915050565b610d4f81611090565b82525050565b610d5e816110a2565b82525050565b6000610d6f8261101e565b610d798185611029565b9350610d898185602086016110e5565b610d92816111a8565b840191505092915050565b6000610daa602383611029565b9150610db5826111b9565b604082019050919050565b6000610dcd602283611029565b9150610dd882611208565b604082019050919050565b6000610df0601d83611029565b9150610dfb82611257565b602082019050919050565b6000610e13602683611029565b9150610e1e82611280565b604082019050919050565b6000610e36602583611029565b9150610e41826112cf565b604082019050919050565b6000610e59602483611029565b9150610e648261131e565b604082019050919050565b6000610e7c602583611029565b9150610e878261136d565b604082019050919050565b610e9b816110ce565b82525050565b610eaa816110d8565b82525050565b6000602082019050610ec56000830184610d46565b92915050565b6000602082019050610ee06000830184610d55565b92915050565b60006020820190508181036000830152610f008184610d64565b905092915050565b60006020820190508181036000830152610f2181610d9d565b9050919050565b60006020820190508181036000830152610f4181610dc0565b9050919050565b60006020820190508181036000830152610f6181610de3565b9050919050565b60006020820190508181036000830152610f8181610e06565b9050919050565b60006020820190508181036000830152610fa181610e29565b9050919050565b60006020820190508181036000830152610fc181610e4c565b9050919050565b60006020820190508181036000830152610fe181610e6f565b9050919050565b6000602082019050610ffd6000830184610e92565b92915050565b60006020820190506110186000830184610ea1565b92915050565b600081519050919050565b600082825260208201905092915050565b6000611045826110ce565b9150611050836110ce565b9250827fffffffffffffffffffffffffffffffffffffffffffffffffffffffffffffffff038211156110855761108461114a565b5b828201905092915050565b600061109b826110ae565b9050919050565b60008115159050919050565b600073ffffffffffffffffffffffffffffffffffffffff82169050919050565b6000819050919050565b600060ff82169050919050565b60005b838110156111035780820151818401526020810190506110e8565b83811115611112576000848401525b50505050565b6000600282049050600182168061113057607f821691505b6020821081141561114457611143611179565b5b50919050565b7f4e487b7100000000000000000000000000000000000000000000000000000000600052601160045260246000fd5b7f4e487b7100000000000000000000000000000000000000000000000000000000600052602260045260246000fd5b6000601f19601f8301169050919050565b7f45524332303a207472616e7366657220746f20746865207a65726f206164647260008201527f6573730000000000000000000000000000000000000000000000000000000000602082015250565b7f45524332303a20617070726f766520746f20746865207a65726f20616464726560008201527f7373000000000000000000000000000000000000000000000000000000000000602082015250565b7f45524332303a20696e73756666696369656e7420616c6c6f77616e6365000000600082015250565b7f45524332303a207472616e7366657220616d6f756e742065786365656473206260008201527f616c616e63650000000000000000000000000000000000000000000000000000602082015250565b7f45524332303a207472616e736665722066726f6d20746865207a65726f20616460008201527f6472657373000000000000000000000000000000000000000000000000000000602082015250565b7f45524332303a20617070726f76652066726f6d20746865207a65726f2061646460008201527f7265737300000000000000000000000000000000000000000000000000000000602082015250565b7f45524332303a2064656372656173656420616c6c6f77616e63652062656c6f7760008201527f207a65726f000000000000000000000000000000000000000000000000000000602082015250565b6113c581611090565b81146113d057600080fd5b50565b6113dc816110ce565b81146113e757600080fd5b5056fea2646970667358221220d3a7f1d959164a2902924e6f930f958b3feb8e356cfde4057bd6824ae1db3da264736f6c63430008040033",
  "linkReferences": {},
  "deployedLinkReferences": {}
}